{
  "contractName": "Descriptor",
  "abi": [
    {
      "constant": true,
      "inputs": [
        {
          "name": "",
          "type": "uint256"
        }
      ],
      "name": "weightDescriptors",
      "outputs": [
        {
          "name": "",
          "type": "uint256"
        }
      ],
      "payable": false,
      "stateMutability": "view",
      "type": "function"
    },
    {
      "inputs": [],
      "payable": false,
      "stateMutability": "nonpayable",
      "type": "constructor"
    },
    {
      "anonymous": false,
      "inputs": [
        {
          "indexed": false,
          "name": "from",
          "type": "address"
        },
        {
          "indexed": false,
          "name": "weight",
          "type": "uint256"
        }
      ],
      "name": "WeightInserted",
      "type": "event"
    },
    {
      "anonymous": false,
      "inputs": [
        {
          "indexed": false,
          "name": "from",
          "type": "address"
        },
        {
          "indexed": false,
          "name": "weight",
          "type": "uint256"
        }
      ],
      "name": "WeightRetrieved",
      "type": "event"
    },
    {
      "constant": false,
      "inputs": [
        {
          "name": "weight",
          "type": "uint256"
        }
      ],
      "name": "insertWeight",
      "outputs": [],
      "payable": false,
      "stateMutability": "nonpayable",
      "type": "function"
    },
    {
      "constant": true,
      "inputs": [],
      "name": "getLatestUserWeight",
      "outputs": [
        {
          "name": "",
          "type": "uint256"
        }
      ],
      "payable": false,
      "stateMutability": "view",
      "type": "function"
    }
  ],
  "bytecode": "0x608060405234801561001057600080fd5b5060006040519080825280602002602001820160405280156100415781602001602082028038833980820191505090505b506000908051906020019061005792919061005d565b506100cf565b828054828255906000526020600020908101928215610099579160200282015b8281111561009857825182559160200191906001019061007d565b5b5090506100a691906100aa565b5090565b6100cc91905b808211156100c85760008160009055506001016100b0565b5090565b90565b61030d806100de6000396000f3fe608060405234801561001057600080fd5b50600436106100415760003560e01c806370d6fbb014610046578063d03a3dc814610088578063fc5b6135146100b6575b600080fd5b6100726004803603602081101561005c57600080fd5b81019080803590602001909291905050506100d4565b6040518082815260200191505060405180910390f35b6100b46004803603602081101561009e57600080fd5b81019080803590602001909291905050506100f5565b005b6100be610214565b6040518082815260200191505060405180910390f35b600081815481106100e157fe5b906000526020600020016000915090505481565b60008111158061010657506103e881115b1561011057610211565b600160003373ffffffffffffffffffffffffffffffffffffffff1673ffffffffffffffffffffffffffffffffffffffff16815260200190815260200160002081908060018154018082558091505090600182039060005260206000200160009091929091909150555060008190806001815401808255809150509060018203906000526020600020016000909192909190915055507f78d7ae63c7ad541956230f8f70cf7b7f8f0ec7129e452c389f7e08df3cf588473382604051808373ffffffffffffffffffffffffffffffffffffffff1673ffffffffffffffffffffffffffffffffffffffff1681526020018281526020019250505060405180910390a15b50565b60006060600160003373ffffffffffffffffffffffffffffffffffffffff1673ffffffffffffffffffffffffffffffffffffffff1681526020019081526020016000208054806020026020016040519081016040528092919081815260200182805480156102a157602002820191906000526020600020905b81548152602001906001019080831161028d575b505050505090506000815114156102bc5760009150506102de565b6000816001835103815181106102ce57fe5b6020026020010151905080925050505b9056fea165627a7a72305820bfd4b9f90a431576a6fc7e8b96e4ff1dbc867ddd3d47ce02af21264b55fb385f0029",
  "source": "\r\npragma solidity >=0.4.25 <0.6.0;\r\n\r\ncontract Descriptor {\r\n    uint[] public weightDescriptors;\r\n    mapping(address => uint[]) private peopleDescriptors;\r\n    event WeightInserted(address from, uint weight);\r\n    event WeightRetrieved(address from, uint weight);\r\n\r\n    constructor() public {\r\n        weightDescriptors = new uint[](0);\r\n    }\r\n\r\n    function insertWeight(uint weight) public {\r\n        if(weight <= 0 || weight > 1000) {\r\n            return;\r\n        }\r\n        peopleDescriptors[msg.sender].push(weight);\r\n        weightDescriptors.push(weight);\r\n        emit WeightInserted(msg.sender, weight);\r\n    }\r\n\r\n    function getLatestUserWeight() public view returns (uint) {\r\n        uint[] memory personWeightDescriptors = peopleDescriptors[msg.sender];\r\n        if(personWeightDescriptors.length == 0) {\r\n            return 0;\r\n        }\r\n        uint weight = personWeightDescriptors[personWeightDescriptors.length - 1];\r\n        return weight;\r\n    }\r\n}",
  "sourcePath": "C:/Users/Akash/Projects/js/smart-contract-spike/contracts/Descriptor.sol",
  "compiler": {
    "name": "solc",
    "version": "0.5.8+commit.23d335f2.Emscripten.clang"
  },
  "schemaVersion": "3.0.16",
  "updatedAt": "2019-09-22T06:43:40.029Z",
  "devdoc": {
    "methods": {}
  },
  "userdoc": {
    "methods": {}
  }
}