{
  "contractName": "Descriptor",
  "abi": [
    {
      "constant": true,
      "inputs": [
        {
          "name": "",
          "type": "uint256"
        }
      ],
      "name": "weightDescriptors",
      "outputs": [
        {
          "name": "",
          "type": "uint256"
        }
      ],
      "payable": false,
      "stateMutability": "view",
      "type": "function"
    },
    {
      "constant": true,
      "inputs": [
        {
          "name": "",
          "type": "string"
        },
        {
          "name": "",
          "type": "uint256"
        }
      ],
      "name": "populationDescriptors",
      "outputs": [
        {
          "name": "",
          "type": "uint256"
        }
      ],
      "payable": false,
      "stateMutability": "view",
      "type": "function"
    },
    {
      "inputs": [],
      "payable": false,
      "stateMutability": "nonpayable",
      "type": "constructor"
    },
    {
      "anonymous": false,
      "inputs": [
        {
          "indexed": false,
          "name": "from",
          "type": "address"
        },
        {
          "indexed": false,
          "name": "weight",
          "type": "uint256"
        }
      ],
      "name": "WeightInserted",
      "type": "event"
    },
    {
      "anonymous": false,
      "inputs": [
        {
          "indexed": false,
          "name": "from",
          "type": "address"
        },
        {
          "indexed": false,
          "name": "weight",
          "type": "uint256"
        }
      ],
      "name": "WeightRetrieved",
      "type": "event"
    },
    {
      "constant": false,
      "inputs": [
        {
          "name": "weight",
          "type": "uint256"
        }
      ],
      "name": "insertDescriptor",
      "outputs": [],
      "payable": false,
      "stateMutability": "nonpayable",
      "type": "function"
    },
    {
      "constant": true,
      "inputs": [],
      "name": "getLatestUserWeight",
      "outputs": [
        {
          "name": "",
          "type": "uint256"
        }
      ],
      "payable": false,
      "stateMutability": "view",
      "type": "function"
    }
  ],
  "bytecode": "0x608060405234801561001057600080fd5b50610435806100206000396000f3fe608060405234801561001057600080fd5b506004361061004c5760003560e01c806370d6fbb014610051578063876f80be14610093578063da68931c1461016c578063fc5b61351461019a575b600080fd5b61007d6004803603602081101561006757600080fd5b81019080803590602001909291905050506101b8565b6040518082815260200191505060405180910390f35b610156600480360360408110156100a957600080fd5b81019080803590602001906401000000008111156100c657600080fd5b8201836020820111156100d857600080fd5b803590602001918460018302840111640100000000831117156100fa57600080fd5b91908080601f016020809104026020016040519081016040528093929190818152602001838380828437600081840152601f19601f820116905080830192505050505050509192919290803590602001909291905050506101d9565b6040518082815260200191505060405180910390f35b6101986004803603602081101561018257600080fd5b810190808035906020019092919050505061021d565b005b6101a261033c565b6040518082815260200191505060405180910390f35b600081815481106101c557fe5b906000526020600020016000915090505481565b600282805160208101820180518482526020830160208501208183528095505050505050818154811061020857fe5b90600052602060002001600091509150505481565b60008111158061022e57506103e881115b1561023857610339565b600160003373ffffffffffffffffffffffffffffffffffffffff1673ffffffffffffffffffffffffffffffffffffffff16815260200190815260200160002081908060018154018082558091505090600182039060005260206000200160009091929091909150555060008190806001815401808255809150509060018203906000526020600020016000909192909190915055507f78d7ae63c7ad541956230f8f70cf7b7f8f0ec7129e452c389f7e08df3cf588473382604051808373ffffffffffffffffffffffffffffffffffffffff1673ffffffffffffffffffffffffffffffffffffffff1681526020018281526020019250505060405180910390a15b50565b60006060600160003373ffffffffffffffffffffffffffffffffffffffff1673ffffffffffffffffffffffffffffffffffffffff1681526020019081526020016000208054806020026020016040519081016040528092919081815260200182805480156103c957602002820191906000526020600020905b8154815260200190600101908083116103b5575b505050505090506000815114156103e4576000915050610406565b6000816001835103815181106103f657fe5b6020026020010151905080925050505b9056fea165627a7a72305820ce54838c2ed646bc50661c22aa667ff2ce8389c709df56c300a36e7f78d6a2e50029",
  "source": "pragma solidity >=0.4.25 <0.6.0;\r\n\r\ncontract Descriptor {\r\n    uint[] public weightDescriptors;\r\n    mapping(address => uint[]) private peopleDescriptors;\r\n    event WeightInserted(address from, uint weight);\r\n    event WeightRetrieved(address from, uint weight);\r\n\r\n    mapping(string => uint[]) public populationDescriptors;\r\n\r\n    constructor() public {\r\n    }\r\n\r\n    function insertDescriptor(uint weight) public {\r\n        if(weight <= 0 || weight > 1000) {\r\n            return;\r\n        }\r\n        peopleDescriptors[msg.sender].push(weight);\r\n        weightDescriptors.push(weight);\r\n        emit WeightInserted(msg.sender, weight);\r\n    }\r\n\r\n    function getLatestUserWeight() public view returns (uint) {\r\n        uint[] memory personWeightDescriptors = peopleDescriptors[msg.sender];\r\n        if(personWeightDescriptors.length == 0) {\r\n            return 0;\r\n        }\r\n        uint weight = personWeightDescriptors[personWeightDescriptors.length - 1];\r\n        return weight;\r\n    }\r\n}",
  "sourcePath": "C:/Users/Akash/Projects/js/smart-contract-spike/contracts/Descriptor.sol",
  "compiler": {
    "name": "solc",
    "version": "0.5.8+commit.23d335f2.Emscripten.clang"
  },
  "schemaVersion": "3.0.16",
  "updatedAt": "2019-09-22T17:36:03.593Z",
  "devdoc": {
    "methods": {}
  },
  "userdoc": {
    "methods": {}
  }
}