{
  "contractName": "UserDescriptors",
  "abi": [
    {
      "constant": false,
      "inputs": [
        {
          "name": "unit",
          "type": "string"
        },
        {
          "name": "value",
          "type": "uint256"
        }
      ],
      "name": "insertValue",
      "outputs": [],
      "payable": false,
      "stateMutability": "nonpayable",
      "type": "function"
    },
    {
      "constant": true,
      "inputs": [
        {
          "name": "unit",
          "type": "string"
        }
      ],
      "name": "getLatestUnitValue",
      "outputs": [
        {
          "name": "",
          "type": "uint256"
        }
      ],
      "payable": false,
      "stateMutability": "view",
      "type": "function"
    },
    {
      "constant": true,
      "inputs": [
        {
          "name": "unit",
          "type": "string"
        }
      ],
      "name": "getAllUnitValues",
      "outputs": [
        {
          "name": "",
          "type": "uint256[]"
        }
      ],
      "payable": false,
      "stateMutability": "view",
      "type": "function"
    },
    {
      "constant": true,
      "inputs": [],
      "name": "getAllAvailableUnits",
      "outputs": [
        {
          "name": "",
          "type": "string[]"
        }
      ],
      "payable": false,
      "stateMutability": "view",
      "type": "function"
    }
  ],
  "bytecode": "0x608060405234801561001057600080fd5b50610bd8806100206000396000f3fe608060405234801561001057600080fd5b506004361061004c5760003560e01c80637d5d308514610051578063dc72ec4014610081578063edf98db01461009f578063ee6a86a1146100bb575b600080fd5b61006b600480360361006691908101906107a1565b6100eb565b60405161007891906109f6565b60405180910390f35b6100896101ed565b60405161009691906109d4565b60405180910390f35b6100b960048036036100b491908101906107e2565b610313565b005b6100d560048036036100d091908101906107a1565b6103a5565b6040516100e29190610a18565b60405180910390f35b6060600015156100fb33846104a5565b1515141561013b5760006040519080825280602002602001820160405280156101335781602001602082028038833980820191505090505b5090506101e8565b600260003373ffffffffffffffffffffffffffffffffffffffff1673ffffffffffffffffffffffffffffffffffffffff1681526020019081526020016000208260405161018891906109bd565b90815260200160405180910390208054806020026020016040519081016040528092919081815260200182805480156101e057602002820191906000526020600020905b8154815260200190600101908083116101cc575b505050505090505b919050565b6060600160003373ffffffffffffffffffffffffffffffffffffffff1673ffffffffffffffffffffffffffffffffffffffff168152602001908152602001600020805480602002602001604051908101604052809291908181526020016000905b8282101561030a578382906000526020600020018054600181600116156101000203166002900480601f0160208091040260200160405190810160405280929190818152602001828054600181600116156101000203166002900480156102f65780601f106102cb576101008083540402835291602001916102f6565b820191906000526020600020905b8154815290600101906020018083116102d957829003601f168201915b50505050508152602001906001019061024e565b50505050905090565b61031c8261052e565b600260003373ffffffffffffffffffffffffffffffffffffffff1673ffffffffffffffffffffffffffffffffffffffff1681526020019081526020016000208260405161036991906109bd565b90815260200160405180910390208190806001815401808255809150509060018203906000526020600020016000909192909190915055505050565b60008015156103b433846104a5565b151514156103c557600090506104a0565b6000600260003373ffffffffffffffffffffffffffffffffffffffff1673ffffffffffffffffffffffffffffffffffffffff1681526020019081526020016000208360405161041491906109bd565b9081526020016040518091039020805490509050600260003373ffffffffffffffffffffffffffffffffffffffff1673ffffffffffffffffffffffffffffffffffffffff1681526020019081526020016000208360405161047591906109bd565b9081526020016040518091039020600182038154811061049157fe5b90600052602060002001549150505b919050565b6000600115156000808573ffffffffffffffffffffffffffffffffffffffff1673ffffffffffffffffffffffffffffffffffffffff168152602001908152602001600020836040516104f791906109bd565b908152602001604051809103902060009054906101000a900460ff161515146105235760009050610528565b600190505b92915050565b6000803373ffffffffffffffffffffffffffffffffffffffff1673ffffffffffffffffffffffffffffffffffffffff1681526020019081526020016000208160405161057a91906109bd565b908152602001604051809103902060009054906101000a900460ff16156105a057610690565b60016000803373ffffffffffffffffffffffffffffffffffffffff1673ffffffffffffffffffffffffffffffffffffffff168152602001908152602001600020826040516105ee91906109bd565b908152602001604051809103902060006101000a81548160ff021916908315150217905550600160003373ffffffffffffffffffffffffffffffffffffffff1673ffffffffffffffffffffffffffffffffffffffff16815260200190815260200160002081908060018154018082558091505090600182039060005260206000200160009091929091909150908051906020019061068d929190610693565b50505b50565b828054600181600116156101000203166002900490600052602060002090601f016020900481019282601f106106d457805160ff1916838001178555610702565b82800160010185558215610702579182015b828111156107015782518255916020019190600101906106e6565b5b50905061070f9190610713565b5090565b61073591905b80821115610731576000816000905550600101610719565b5090565b90565b600082601f83011261074957600080fd5b813561075c61075782610a60565b610a33565b9150808252602083016020830185838301111561077857600080fd5b610783838284610b34565b50505092915050565b60008135905061079b81610b87565b92915050565b6000602082840312156107b357600080fd5b600082013567ffffffffffffffff8111156107cd57600080fd5b6107d984828501610738565b91505092915050565b600080604083850312156107f557600080fd5b600083013567ffffffffffffffff81111561080f57600080fd5b61081b85828601610738565b925050602061082c8582860161078c565b9150509250929050565b60006108428383610966565b905092915050565b6000610856838361099f565b60208301905092915050565b600061086d82610aa6565b6108778185610aec565b93508360208202850161088985610a8c565b8060005b858110156108c557848403895281516108a68582610836565b94506108b183610ad2565b925060208a0199505060018101905061088d565b50829750879550505050505092915050565b60006108e282610ab1565b6108ec8185610afd565b93506108f783610a99565b8060005b8381101561092857815161090f888261084a565b975061091a83610adf565b9250506001810190506108fb565b5085935050505092915050565b600061094082610ac7565b61094a8185610b1f565b935061095a818560208601610b43565b80840191505092915050565b600061097182610abc565b61097b8185610b0e565b935061098b818560208601610b43565b61099481610b76565b840191505092915050565b6109a881610b2a565b82525050565b6109b781610b2a565b82525050565b60006109c98284610935565b915081905092915050565b600060208201905081810360008301526109ee8184610862565b905092915050565b60006020820190508181036000830152610a1081846108d7565b905092915050565b6000602082019050610a2d60008301846109ae565b92915050565b6000604051905081810181811067ffffffffffffffff82111715610a5657600080fd5b8060405250919050565b600067ffffffffffffffff821115610a7757600080fd5b601f19601f8301169050602081019050919050565b6000602082019050919050565b6000602082019050919050565b600081519050919050565b600081519050919050565b600081519050919050565b600081519050919050565b6000602082019050919050565b6000602082019050919050565b600082825260208201905092915050565b600082825260208201905092915050565b600082825260208201905092915050565b600081905092915050565b6000819050919050565b82818337600083830152505050565b60005b83811015610b61578082015181840152602081019050610b46565b83811115610b70576000848401525b50505050565b6000601f19601f8301169050919050565b610b9081610b2a565b8114610b9b57600080fd5b5056fea265627a7a7230582009b2ef042f760c03aac35b73c0df6896146796ee5ecede74297cf80ca60a42f06c6578706572696d656e74616cf50037",
  "source": "pragma solidity >=0.4.25 <0.6.0;\r\npragma experimental ABIEncoderV2;\r\n\r\ncontract UserDescriptors {\r\n    mapping(address => mapping(string => bool)) unitsTable;\r\n    mapping(address => string[]) units;\r\n    mapping(address => mapping(string => uint[])) descriptorValues;\r\n\r\n    function insertUnit(string memory unit) private {\r\n        if(unitsTable[msg.sender][unit]) {\r\n            return;\r\n        }\r\n        unitsTable[msg.sender][unit] = true;\r\n        units[msg.sender].push(unit);\r\n    }\r\n\r\n    function insertValue(string memory unit, uint value) public {\r\n        insertUnit(unit);\r\n        descriptorValues[msg.sender][unit].push(value);\r\n    }\r\n    \r\n    function doesUnitExist(address user, string memory unit) private view returns (bool) {\r\n        if(unitsTable[user][unit] != true) {\r\n            return false;\r\n        }\r\n        return true;\r\n    }\r\n    \r\n    function getLatestUnitValue(string memory unit) public view returns (uint) {\r\n        if(doesUnitExist(msg.sender, unit) == false) {\r\n            return 0;\r\n        }\r\n        uint length = descriptorValues[msg.sender][unit].length;\r\n        return descriptorValues[msg.sender][unit][length - 1];\r\n    }\r\n    \r\n    function getAllUnitValues(string memory unit) public view returns (uint[] memory) {\r\n        if(doesUnitExist(msg.sender, unit) == false) {\r\n            return new uint[](0);\r\n        }\r\n        return descriptorValues[msg.sender][unit];\r\n    }\r\n    \r\n    function getAllAvailableUnits() public view returns (string[] memory) {\r\n        return units[msg.sender];\r\n    }\r\n\r\n    function compareStrings (string memory a, string memory b) private pure returns (bool) {\r\n        return (keccak256(abi.encodePacked((a))) == keccak256(abi.encodePacked((b))) );\r\n    }\r\n}",
  "sourcePath": "C:/Users/Akash/Projects/js/smart-contract-spike/contracts/UserDescriptors.sol",
  "compiler": {
    "name": "solc",
    "version": "0.5.8+commit.23d335f2.Emscripten.clang"
  },
  "schemaVersion": "3.0.16",
  "updatedAt": "2019-09-22T19:24:02.081Z",
  "devdoc": {
    "methods": {}
  },
  "userdoc": {
    "methods": {}
  }
}